:100000000C945C000C946E000C946E000C946E00CA
:100010000C946E000C946E000C946E000C946E00A8
:100020000C946E000C946E000C946E000C946E0098
:100030000C946E000C946E000C946E000C946E0088
:100040000C9470000C946E000C946E000C946E0076
:100050000C946E000C946E000C946E000C946E0068
:100060000C946E000C946E00000000002400270029
:100070002A0000000000250028002B0004040404CE
:100080000404040402020202020203030303030342
:10009000010204081020408001020408102001021F
:1000A00004081020000000080002010000030407FB
:1000B000000000000000000011241FBECFEFD8E0B8
:1000C000DEBFCDBF21E0A0E0B1E001C01D92A930AC
:1000D000B207E1F70E94BA000C9462010C94000090
:1000E0001F920F920FB60F9211242F933F938F936D
:1000F0009F93AF93BF938091050190910601A091CA
:100100000701B09108013091040123E0230F2D373E
:1001100020F40196A11DB11D05C026E8230F02960B
:10012000A11DB11D20930401809305019093060148
:10013000A0930701B0930801809100019091010103
:10014000A0910201B09103010196A11DB11D809300
:10015000000190930101A0930201B0930301BF91AC
:10016000AF919F918F913F912F910F900FBE0F9064
:100170001F901895789484B5826084BD84B58160A1
:1001800084BD85B5826085BD85B5816085BD809162
:100190006E00816080936E001092810080918100DA
:1001A00082608093810080918100816080938100D2
:1001B000809180008160809380008091B100846094
:1001C0008093B1008091B00081608093B0008091F5
:1001D0007A00846080937A0080917A0082608093B4
:1001E0007A0080917A00816080937A0080917A0011
:1001F000806880937A001092C10048E950E0FA01CB
:10020000649184E890E0FC012491222399F030E08D
:10021000220F331FF901E859FF4FA591B4912E58D1
:100220003F4FF901C591D4912FB7F8943C91632BBE
:100230006C932FBFECEAF0E02491FA014491FC01A9
:1002400094919923C1F1222339F1233091F038F4AC
:100250002130A9F0223001F584B58F7D12C02730FE
:1002600091F02830A1F02430B9F4809180008F7D86
:1002700003C0809180008F77809380000DC084B58B
:100280008F7784BD09C08091B0008F7703C08091C3
:10029000B0008F7D8093B000E92FF0E0EE0FFF1FDC
:1002A000EE58FF4FA591B4918FB7F8949C9140956B
:1002B00049234C938FBFC0E0D0E02097F1F30E9418
:0802C0000000FBCFF894FFCF12
:00000001FF
